:10000000B7C00000D1C00000CFC00000CDC00000CC
:10001000CBC00000C9C00000C7C00000C5C00000C0
:10002000C3C00000C1C00000F1C40000BDC000009A
:10003000BBC00000B9C00000B7C00000B5C00000E0
:100040004BC10000B1C00000AFC00000ADC0000057
:1000500025C10000A9C00000A7C00000A5C0000085
:10006000A3C00000A1C000009FC000009DC0000010
:100070009BC0000099C0000097C0000095C0000020
:1000800093C0000091C000008FC000008DC0000030
:100090008BC0000089C0000087C0000085C0000040
:1000A00083C0000081C000007FC0000046035000F4
:1000B00050004D00200052006100640069006F0094
:1000C00020002D00200055005300420020004A006F
:1000D0006F00790073007400690063006B002000FA
:1000E00049006E00740065007200660061006300E4
:1000F00065000000060373007A0000000403090491
:1001000009022200010100C03209040000010300BD
:100110000000092111010001223C000705810308AC
:1001200000051201100100000008EB03432001004C
:100130000102000105010904A1010901A100093022
:1001400009310932093216C0E026401F369CFF46AD
:100150006400950475108102C00509190129021572
:10016000002501750195028102750695018101C086
:1001700011241FBECFEFDAE0DEBFCDBF11E0A0E05B
:10018000B1E0ECEDF2E102C005900D92A833B107A9
:10019000D9F721E0A8E3B1E001C01D92A036B20773
:1001A000E1F729D00C946C092BCF84B7877F84BFEB
:1001B0000FB6F894A89580916000886180936000E4
:1001C000109260000FBE90E080E80FB6F894809324
:1001D0006100909361000FBE559A5D98209A28980F
:1001E000F8D31092800081E88093810081E28093AF
:1001F0006F005C9A0895D9DF86E08093520181E018
:100200008093450180EC9DE59093470180934601E2
:10021000909349018093480190934B0180934A0148
:1002200090934D0180934C0190934F0180934E0128
:1002300090935101809350017894C1E080913801EE
:100240008F5F809338018F77F1F4E0913B018091CB
:100250003A018F5F80933A01877098E0E99FF0013F
:100260001124E80FF11DE050FF4F80819BB1282F32
:10027000209520729F7D922B9BB995B181708C2720
:100280009E7F892B85B98FE99FE00197F1F700C028
:10029000000088E291E041D7DBD5D0CF1F920F92CA
:1002A0000FB60F9211248F9380914501843120F471
:1002B0008F5F809345010AC081E080934501809162
:1002C0003901882319F083E080933B018F910F90CF
:1002D0000FBE0F901F9018951F920F920FB60F929E
:1002E00011242F933F938F93EF93FF9310928500E8
:1002F0001092840020918600309187008091450102
:10030000882361F01092450180913901882319F00A
:1003100084E080933B01109252010FC08091520102
:10032000863058F4E82FF0E0EE0FFF1FEA5BFE4F37
:10033000318320838F5F80935201FF91EF918F91E2
:100340003F912F910F900FBE0F901F90189581E055
:1003500080933B0110923901089510923B01109255
:100360003901089588E291E0C5D69091E200946049
:100370009093E200882339F083E080933B0181E091
:1003800080933901089582E080933B0110923901F6
:10039000089588E291E076C5809136019091370109
:1003A000009729F0019790933701809336010895C3
:1003B0000F931F93F9018091460190914701803876
:1003C0002EE3920710F480E89EE381302DE7920738
:1003D00010F080E09DE7805C9D4591838083809153
:1003E0004C0190914D0180382EE3920710F480E883
:1003F0009EE381302DE7920710F080E09DE7805C5E
:100400009D45938382838091480190914901803872
:100410002EE3920710F480E89EE381302DE79207E7
:1004200010F080E09DE7805C9D45958384838091FA
:100430004A0190914B0180382EE3920710F480E836
:100440009EE381302DE7920710F080E09DE7805C0D
:100450009D459783868381E020914E0130914F0125
:10046000203C3D4508F080E0209150013091510141
:10047000203C3D4510F090E001C092E0890F80875C
:1004800089E090E0F8019183808380E01F910F91D3
:1004900008950895292F332723303105E1F05CF4C6
:1004A0002130310599F02230310579F582E290E072
:1004B00020E031E02EC02132310511F12232310528
:1004C00021F58CE390E024E331E023C082E190E069
:1004D00022E231E01EC099278130910541F082303F
:1004E000910541F0892B89F4ECEFF0E005C0E4EFD1
:1004F000F0E002C0ECEAF0E0849190E09F0109C0D6
:1005000089E090E022E131E004C080E090E020E06A
:1005100030E0FA01318320830895CF92DF92EF9289
:10052000FF920F931F93CF93DF93EC018B017A011E
:10053000DED1811133C0E114F10439F0F70180817B
:100540009181081B190BC80FD91FC12CD12C011583
:10055000110519F18091E80085FD16C08091E80031
:100560008E778093E80074D4E114F10449F0F70128
:1005700080819181C80ED91ED182C08285E00EC0D3
:10058000B6D1882321F30AC089918093F1000150EC
:100590001109FFEFCF1ADF0ADACF80E0DF91CF91A8
:1005A0001F910F91FF90EF90DF90CF9008952091D1
:1005B0005E0130915F012617370748F0611571051C
:1005C00039F42091E8002E772093E80001C0B901AA
:1005D00040E061157105A9F120915701222309F42A
:1005E00043C0253009F442C02091E80023FD40C0FB
:1005F0002091E80022FD32C02091E80020FFE9CFE1
:100600004091F3002091F20030E0342BFC01CF0147
:100610006115710559F02830310540F481918093BE
:10062000F100615071092F5F3F4FF1CF41E0283059
:10063000310509F040E02091E8002E772093E80092
:10064000C8CF4111C9CF0AC080915701882361F0FA
:10065000853061F08091E80083FD0AC08091E80058
:1006600082FFF2CF80E0089582E0089583E008954C
:1006700081E008956115710529F42091E8002B7738
:100680002093E800FC016115710541F1809157014B
:10069000882361F1853061F18091E80083FD24C0F9
:1006A0008091E80082FFEFCF2091F3008091F2006B
:1006B00090E0922B892B31F08091F1008193615071
:1006C000710991F78091E8008B778093E800DBCF88
:1006D00080915701882351F0853051F08091E800D6
:1006E00080FFF6CF80E0089581E0089582E00895CC
:1006F00083E0089520915E0130915F01261737074E
:1007000048F06115710539F42091E8002E772093A7
:10071000E80001C0B901FC0120E06115710591F10B
:1007200080915701882309F440C0853009F43FC007
:100730008091E80083FD3DC08091E80082FD2FC0DC
:100740008091E80080FFE9CF2091F3008091F200D2
:1007500090E0922B6115710559F08830910540F4B5
:1007600024912093F1003196615071090196F2CFE6
:1007700021E0089709F020E08091E8008E778093CF
:10078000E800CBCF2111CCCF0AC08091570188233C
:1007900061F0853061F08091E80083FD0AC08091AE
:1007A000E80082FFF2CF80E0089582E0089583E0C0
:1007B000089581E00895982F973058F59093E900B7
:1007C000981739F07091EC002091ED005091F000F5
:1007D00003C0242F762F50E021FF19C03091EB0089
:1007E0003E7F3093EB003091ED003D7F3093ED0084
:1007F0003091EB0031603093EB007093EC0020936C
:10080000ED005093F0002091EE0027FF07C09F5F9E
:10081000D3CF8F708093E90081E0089580E0089540
:10082000EF92FF920F931F93CF93DF93E62EEC018D
:100830008C010C5F1F4FF12CFE1491F15881552350
:1008400051F1F801208169817A8131979081852F5A
:100850008F70873010F080E024C0223010F442E026
:1008600001C046E0E8E0F0E020E0E617F70720F4FA
:100870002F5FEE0FFF1FF9CF2295207F422BF0E470
:100880009F9F90011124551F5527551F652F622BDF
:1008900092DF882301F3F39425960B5F1F4FCCCF93
:1008A00081E0DF91CF911F910F91FF90EF9008951C
:1008B0008091580187FF11C08091E80082FD05C03A
:1008C000809157018111F8CF11C08091E8008B779A
:1008D0000BC080915701882349F08091E80080FF88
:1008E000F8CF8091E8008E778093E80008952091FA
:1008F000E4003091E50095E64091EC00842F817092
:1009000040FF22C08091E80080FD1CC0809157010B
:10091000882391F0853091F08091EB0085FD10C027
:100920004091E4005091E5004217530729F39A01E2
:10093000915011F784E0089582E0089583E00895CE
:1009400081E0089580E008954091E80042FFDECF05
:1009500008950F931F93CF93DF934BD052D0C8EDE0
:10096000D0E088818F7788838881806888838881B8
:100970008F7D888319BC10925701109253011092F9
:1009800055011092540100EE10E0F80180818B7F38
:10099000808388818160888342E060E080E00BDFB3
:1009A000E1EEF0E080818E7F8083E2EEF0E08081F6
:1009B00081608083808188608083F80180818E7F60
:1009C0008083888180618883DF91CF911F910F910F
:1009D0000895E8EDF0E080818F7E8083E7EDF0E020
:1009E00080818160808384E082BF81E080935601B2
:1009F000B0CFE8EDF0E080818E7F80831092E2003E
:100A000008951092DA001092E10008951F920F925B
:100A10000FB60F9211242F933F934F935F936F93D1
:100A20007F938F939F93AF93BF93EF93FF938091A7
:100A3000E10082FF0AC08091E20082FF06C080913F
:100A4000E1008B7F8093E100A7DC8091DA0080FFDA
:100A50001DC08091D80080FF19C08091DA008E7F80
:100A60008093DA008091D90080FF0CC080E189BDBD
:100A700082E189BD09B400FEFDCF81E0809357017A
:100A800066DC04C019BC1092570167DC8091E1005C
:100A900080FF18C08091E20080FF14C08091E200C6
:100AA0008E7F8093E2008091E20080618093E2007B
:100AB0008091D80080628093D80019BC85E0809333
:100AC0005701C5D18091E10084FF2FC08091E200E1
:100AD00084FF2BC080E189BD82E189BD09B400FE9D
:100AE000FDCF8091D8008F7D8093D8008091E10068
:100AF0008F7E8093E1008091E2008F7E8093E20000
:100B00008091E20081608093E2008091530188230C
:100B100011F084E007C08091E30087FD02C081E00E
:100B200001C083E08093570192D18091E10083FF5F
:100B300022C08091E20083FF1EC08091E100877F88
:100B40008093E10082E080935701109253018091DD
:100B5000E1008E7F8093E1008091E2008E7F8093A0
:100B6000E2008091E20080618093E20042E060E078
:100B700080E021DE6CD1FF91EF91BF91AF919F9109
:100B80008F917F916F915F914F913F912F910F9036
:100B90000FBE0F901F9018951F93CF93DF93CDB783
:100BA000DEB7AA970FB6F894DEBF0FBECDBFE8E55B
:100BB000F1E088E08E0F9091F10091938E13FBCFBE
:100BC000E8DB8091E80083FF2AC180915801909171
:100BD0005901953009F483C030F49130A9F168F0DF
:100BE000933091F11CC1983009F4EEC0993009F4AA
:100BF000FAC0963009F013C194C0803821F08238D1
:100C000009F00DC108C080915401909155019923BC
:100C100089F082600FC080915C018F70873008F08E
:100C2000FEC08093E9008091EB0085FB882780F966
:100C30001092E9009091E800977F9093E8008093EC
:100C4000F1001092F100CBC0282F2D7F09F0E7C0F2
:100C5000882319F0823061F0E2C080915A0181301E
:100C600009F0DDC0933009F080E0809355012EC07B
:100C700080915A0181112AC080915C018F702FEF01
:100C8000280F263008F0CBC08093E9002091EB00BC
:100C900020FF1CC0933021F48091EB00806214C0CF
:100CA0009091EB0090619093EB0021E030E0A9017E
:100CB00002C0440F551F8A95E2F74093EA00109254
:100CC000EA008091EB0088608093EB001092E900CD
:100CD0008091E800877F8093E800EADDA0C0811161
:100CE0009EC010915A011F778091E3008078812B7C
:100CF0008093E3008091E800877F8093E800D8DD4F
:100D00008091E80080FFFCCF8091E30080688093B1
:100D1000E300111102C082E001C083E0809357011B
:100D20007EC08058823008F07AC080915A0190913C
:100D30005B018C3D53E0950771F583E08A838AE27D
:100D400089834FB7F894DE01139620E03EE051E22C
:100D5000E32FF0E050935700E49120FF03C0E295A9
:100D6000EF703F5FEF708E2F90E0EA3010F0C79683
:100D700001C0C0968D939D932F5F243149F74FBFDB
:100D80008091E800877F8093E8006AE270E0CE01FE
:100D900001960DDC13C060915C0170915D01AE01A4
:100DA0004F5F5F4F77DBBC01892BC9F19091E80061
:100DB000977F9093E80089819A819CDC8091E8007C
:100DC0008B778093E8002BC0803849F58091E8004C
:100DD000877F8093E800809153018093F100809198
:100DE000E8008E7778CF81111AC090915A01923025
:100DF000B0F48091E800877F8093E80090935301DE
:100E000057DD80915301811106C08091E30087FD79
:100E100002C081E001C084E080935701A3DA809191
:100E2000E80083FF0AC08091E800877F8093E80094
:100E30008091EB0080628093EB00AA960FB6F89445
:100E4000DEBF0FBECDBFDF91CF911F9108950895F2
:100E5000CF9380915701882399F0C091E900CF701A
:100E60009091EC00892F817090FD80E8C82B109242
:100E7000E9008091E80083FD8FDECF70C093E90028
:100E8000CF9108956F927F928F929F92AF92BF926F
:100E9000CF92DF92EF92FF920F931F93CF93DF9346
:100EA00000D01F92CDB7DEB77C01CDB6DEB6809103
:100EB000E80083FF08C1F701808190E020915C0188
:100EC00030915D012817390709F0FDC08091590163
:100ED000833009F49FC030F4813071F0823009F41E
:100EE000D6C0F1C08A3009F4BAC08B3009F4A3C06F
:100EF000893009F0E8C051C080915801813A09F069
:100F0000E2C08DB69EB61A82198280915A01109164
:100F10005B018B83F7018085482F50E08DB79EB72A
:100F2000841B950B0FB6F8949EBF0FBE8DBFEDB717
:100F3000FEB731965F0160E070E0CF01C6D14FEFA0
:100F4000410F8E010F5F1F4F9501BE016D5F7F4FF7
:100F5000C7012EDAF70186819781009721F040853D
:100F600050E0B501A9D11092E9008091E800877F97
:100F70008093E8008B8181118093F10069817A81EF
:100F8000C50115DB8091E8008B778093E8000FB6F0
:100F9000F8949EBE0FBE8DBE96C0809158018132DE
:100FA00009F091C0ADB6BEB600915E0110915F012F
:100FB00070905A0160905B018DB79EB7801B910BBA
:100FC0000FB6F8949EBF0FBE8DBFEDB7FEB731963A
:100FD0004F018091E800877F8093E800B801CF013E
:100FE00049DB8091E8008E778093E80021E0711062
:100FF00001C020E030E0021B130B280D391D4FEF1C
:10100000460D672DC70145DA0FB6F894BEBE0FBE78
:10101000ADBE59C080915801813A09F054C0809109
:10102000E800877F8093E8008091E80080FFFCCF94
:10103000F701818540C080915801813209F043C099
:101040008091E800877F8093E80032DC90915A011C
:1010500081E0911101C080E0F701818734C0809167
:101060005801813281F58091E800877F8093E80004
:101070001FDC80915A0190915B01882736E096959C
:1010800087953A95E1F7F701958784871CC0809191
:101090005801813AC1F48091E800877F8093E8008D
:1010A0008091E80080FFFCCFF701848595859695B7
:1010B0008795969587958093F1008091E8008E77CB
:1010C0008093E800F5DB0FB6F894DEBE0FBECDBE10
:1010D0000F900F900F90DF91CF911F910F91FF9084
:1010E000EF90DF90CF90BF90AF909F908F907F90C8
:1010F0006F900895FC01399627E0DF011D922A9533
:10110000E9F721E0FC01218724EF31E035872487CE
:1011100023E0248361E0019683CB4F925F926F922C
:101120007F928F929F92AF92BF92CF92DF92EF9277
:10113000FF920F931F93CF93DF9300D01F92CDB7F1
:10114000DEB77C01ADB6BEB680915701843009F0A0
:101150008DC08091E4009091E500F70122853385F0
:101160002817390709F482C081818F708093E900C4
:101170008091E80085FF7AC08DB69EB6408550E02C
:101180008DB79EB7841B950B0FB6F8949EBF0FBE0C
:101190008DBFEDB7FEB731966F011B821A8219829F
:1011A00060E070E0CF0191D08E010F5F1F4F96017C
:1011B00040E0BE016D5F7F4FC701FAD8482EF701AE
:1011C00084859585892B51F091E080E026853785CF
:1011D000232B09F090E0092F182F02C000E010E047
:1011E000F701668077806114710489F049815A8122
:1011F000B301C60154D055245394892B09F4512CC2
:10120000F701408550E0B601C30156D001C0512C12
:1012100089819A81892BF1F0411004C0511002C0DC
:10122000012BC1F0F7018485958597878687818199
:101230008F708093E9008B8181118093F100698127
:101240007A8140E050E0C60168D98091E8008E774D
:101250008093E8008091E4009091E500F701938786
:1012600082870FB6F8949EBE0FBE8DBE0FB6F8945F
:10127000BEBE0FBEADBE0F900F900F90DF91CF910D
:101280001F910F91FF90EF90DF90CF90BF90AF90A4
:101290009F908F907F906F905F904F900895FB018B
:1012A000DC0104C08D910190801921F4415050401F
:1012B000C8F7881B990B0895FB01DC0102C001905F
:1012C0000D9241505040D8F70895DC0101C06D9354
:0C12D00041505040E0F70895F894FFCF23
:1012DC0001000000000000000100010001000100FD
:1012EC00210000002100000001200100000000008E
:1012FC0001212021012120210081080000013C0155
:08130C000900000000000000D0
:00000001FF
